S01700004763634170706C69636174696F6E312E737265635B
S113000005C1000023C1000021C100001FC1000080
S11300101DC10000B5C4000019C1000017C10000D3
S113002015C1000013C1000011C100000FC1000080
S11300300DC100000BC1000009C1000007C1000090
S113004005C1000060C4000001C10000FFC0000041
S1130050FDC00000FBC00000F9C00000F7C00000B4
S1130060F5C00000F3C00000F1C00000EFC00000C4
S1130070EDC00000EBC00000E9C00000E7C00000D4
S1130080E5C00000E3C00000E1C00000DFC00000E4
S1130090DDC00000DBC00000D9C00000D7C00000F4
S11300A0D5C00000D3C00000D1C00000CFC0000004
S11300B0CDC00000CBC00000C9C00000C7C0000014
S11300C0C5C00000C3C00000C1C00000BFC0000024
S11300D0BDC00000BBC00000B9C00000B7C0000034
S11300E0B5C00000084AD73B3BCE016E84BCBFFDBF
S11300F0C12F3D6C74319ABD56833DDA3D00C77FF4
S113010011BED9E4BB4C3E916BAAAABE000000808C
S11301103F0000407A10F35A00A0724E18090010F4
S1130120A5D4E80000E87648170000E40B54020068
S113013000CA9A3B000000E1F50500008096980093
S1130140000040420F000000A086010000001027BC
S113015000000000E803000000006400000000004C
S11301600A00000000000100000000002C76D8887E
S1130170DC674F0823DFC1DFAE59E1B1B796E5E391
S1130180E453C63AE651997696E8E6C28426EB89AA
S11301908C9B62ED407C6FFCEFBC9C9F40F2BAA547
S11301A06FA5F490055A2AF75C936B6CF9676DC1DF
S11301B01BFCE0E40D47FEF520E6B500D0ED902EE3
S11301C00300943577050080841E080000204E0A41
S11301D0000000C80C333333330F986E128311417F
S11301E0EF8D2114893BE65516CFFEE6DB18D1844A
S11301F04B381BF77C1D901DA4BBE4242032847271
S11302005E228100C9F124ECA1E53D2711241FBE23
S1130210CFEFD1E2DEBFCDBF00E00CBF12E0A0E023
S1130220B2E0E4E2FAE100E00BBF02C007900D92F5
S1130230AA32B107D9F722E0AAE2B2E001C01D92C6
S1130240A03AB207E1F753D20C94100DD9CE109214
S1130250B90088E48093B800089594EA9093BC00B0
S11302609091BC009923E4F79091B900987F903164
S113027091F48093BB0084E88093BC008091BC001F
S11302808823E4F78091B900887F803431F080328C
S113029031F482E0089580E0089581E0089583E0D8
S11302A0089584E98093BC008091BC0084FDFCCF58
S11302B00895CF93C82F84EA8093BC008091BC003A
S11302C08823E4F78091B900887F8830A1F7C09330
S11302D0BB0084E88093BC008091BC008823E4F7D1
S11302E08091B900887F883111F0DBDFE4CFCF91B2
S11302F008958093BB0084E88093BC008091BC0087
S11303008823E4F78091B900887F883221F0803314
S113031021F481E0089580E0089582E0089584EC5A
S11303208093BC008091BC008823E4F78091BB00DB
S1130330089584E88093BC008091BC008823E4F78E
S11303408091BB0008951092C50087E68093C40095
S113035088E18093C10086E08093C2000895909163
S1130360C00095FFFCCF8093C60008950F931F93A0
S1130370CF93DF938C01C0E0D0E002C0F0DF219680
S1130380F801EC0FFD1F80818111F8CFDF91CF912F
S11303901F910F9108952FEF82E597E0215080403F
S11303A09040E1F700C0000080ED83DF89E1A1DF28
S11303B087E09FDF76DF80ED7CDF8BE69ADF81E0EC
S11303C098DF6FDF80ED75DF8AE193DF80E091DFF6
S11303D068DF80ED6EDF8BE18CDF88E18ADF61DF2F
S11303E080ED67DF88E385DF81E083DF5ACF0895FE
S11303F080ED5FDF8BE37DDF81ED2FCF08950F93D9
S11304001F93CF93DF93F4DF8ADFC82FD0E0DC2F74
S1130410CC2785DFBE01682B00E412E0072E000C18
S1130420880B990B40D4F801608371838283938392
S113043076DFC82FD0E0DC2FCC2771DFBE01682B1C
S1130440072E000C880B990B2ED4F8016483758356
S11304508683978364DFC82FD0E0DC2FCC275FDF4F
S1130460BE01682B072E000C880B990B1CD4F801D5
S1130470608771878287938752DFC82FD0E0DC2F93
S1130480CC274DDFBE01682B072E000C880B990B7F
S11304900AD4F801648775878687978740DFC82F59
S11304A0D0E0DC2FCC273BDFBE01682B072E000CED
S11304B0880B990BF8D3F801608B718B828B938B2B
S11304C02EDFC82FD0E0DC2FCC2733DFBE01682B12
S11304D0072E000C880B990BE6D3F801648B758BFF
S11304E0868B978BDEDEC801DF91CF911F910F9130
S11304F00895982F907F92B992B19E7F92B992B14C
S11305009D7F92B992B1946092B9EFE3FCE931977F
S1130510F1F700C0000092B19B7F92B9EFE3FCE9D0
S11305203197F1F700C00000F0E18F9FC001112462
S113053082B982B18E7F82B982B18D7F82B982B154
S1130540846082B98FE39CE90197F1F700C0000051
S113055082B18B7F82B9EFE3FCE93197F1F700C0F8
S1130560000008958FEF81B982E0C3DF88E2C1DF24
S11305708EE0BFDF81E0BDDF80E8BBCF0895982F18
S1130580907F92B992B1916092B992B19D7F92B9E4
S113059092B1946092B9EFE3FCE93197F1F700C0AE
S11305A0000092B19B7F92B9EFE3FCE93197F1F738
S11305B000C00000F0E18F9FC001112482B982B114
S11305C0816082B982B18D7F82B982B1846082B93F
S11305D08FE39CE90197F1F700C0000082B18B7FA3
S11305E082B9EFE3FCE93197F1F700C00000089508
S11305F00F931F93CF93DF938C01C0E0D0E002C030
S1130600BEDF2196F801EC0FFD1F80818111F8CF28
S113061080EC6FDFDF91CF911F910F9108950F93BD
S11306201F93CF93DF93EC01072E000C880B990BDB
S11306303AD308E712E022E043E0AAD4C8019F932A
S11306400F9380E092E09F938F938CE892E09F93C6
S11306508F93BDD4BE01DD0F880B990B24D30AE51B
S113066012E022E043E094D4C8019F930F9381E108
S113067092E09F938F9384E692E09F938F93A7D405
S11306808CE892E073DE84E692E070DE8DB79EB76C
S11306900C960FB6F8949EBF0FBE8DBFDF91CF911D
S11306A01F910F91089584E692E0A2CF0895EFE69A
S11306B0F0E080818260808308951092850010921A
S11306C08400E1E8F0E080818D6080838AE197EB2B
S11306D09093890080938800EACF0895E9E6F0E0DA
S11306E08081836080838DB380618DBB0895CF93B7
S11306F0DF9300D01F92CDB7DEB7A9DD4CDE23DE39
S113070031DFDBDFEBDF789400E010E0212C312CCB
S113071076DE9A838983DC016D917D918D919C9124
S113072020E030E040E858E376D32B013C016093AD
S11307303C0270933D0280933E0290933F02E98114
S1130740FA81648175818681978120E030E040E8F8
S113075058E361D34B015C01609338027093390212
S113076080933A0290933B02A981BA8118966D91C5
S11307707D918D919C911B9720E030E040E858E3F7
S11307804AD36B017C0160933402709335028093E9
S1130790360290933702E981FA81648575858685EE
S11307A0978523E333E343E851E4E2D160933002D5
S11307B0709331028093320290933302A981BA81FB
S11307C050966D917D918D919C91539723E333E3E2
S11307D043E851E4CDD169837A838B839C8360930E
S11307E02C0270932D0280932E0290932F02A50168
S11307F09401C501B4010FD34B015C01A70196011B
S1130800C701B60108D39B01AC01C501B401EAD00C
S113081069D39B01AC01C301B20157D120E030E0A0
S113082040E753E4F8D220ED3FE049E450E4A0D19E
S113083007D26B017C0170938502609384022AE0E5
S113084037ED43EA5CE369817A818B819C81E3D251
S11308504B015C016091860270918702072E000CA7
S1130860880B990B20D2A5019401BCD022EA35E46F
S113087046E75FE3D0D24B015C01B601DD0C880B87
S1130880990B11D220EE35EA4BE15DE3C4D29B0112
S1130890AC01C501B401A6D0D3D170938702609393
S11308A0860280912A0290912B0203976CF088E0D3
S11308B020DE10922B0210922A02009186021091DF
S11308C0870222242394312CB1E02B16310471F4D5
S11308D080918602909187020817190739F042DE49
S11308E010922B0210922A02212C312C8091860224
S11308F0909187020817190709F40ACF10922B0266
S113090010922A0205CF1F920F920FB60F92112454
S11309100BB60F922F933F934F935F936F937F93F5
S11309208F939F93AF93BF93EF93FF9320915802BC
S113093030915902809186029091870260E070E0C4
S1130940821B930B6CDEAFDE80912A0290912B0206
S1130950019690932B0280932A02FF91EF91BF910D
S1130960AF919F918F917F916F915F914F913F9143
S11309702F910F900BBE0F900FBE0F901F901895E4
S11309801F920F920FB60F9211240BB60F922F9352
S11309903F934F935F936F937F938F939F93AF9303
S11309A0BF93EF93FF938091860290918702909377
S11309B05902809358028DE192E0D8DCFF91EF91C7
S11309C0BF91AF919F918F917F916F915F914F9163
S11309D03F912F910F900BBE0F900FBE0F901F9061
S11309E018955058BB27AA270ED0D4C1C5D130F0D2
S11309F0CAD120F031F49F3F11F41EF495C10EF4D6
S1130A00E095E7FB8BC1E92FD6D180F3BA176207D3
S1130A1073078407950718F071F49EF5EEC10EF480
S1130A20E0950B2EBA2FA02D0B01B90190010C01FA
S1130A30CA01A0011124FF27591B99F0593F50F412
S1130A40503E68F11A16F040A22F232F342F44276A
S1130A50585FF3CF469537952795A795F040539562
S1130A60C9F77EF41F16BA0B620B730B840BBAF032
S1130A709150A1F0FF0FBB1F661F771F881FC2F79D
S1130A800EC0BA0F621F731F841F48F487957795B1
S1130A906795B795F7959E3F08F0B3CF9395880F68
S1130AA008F09927EE0F97958795089565D158F02A
S1130AB080E891E009F49EEF66D128F040E851E027
S1130AC059F45EEF09C030C198C1E92FE07873D1C1
S1130AD068F3092E052AC1F3261737074807590773
S1130AE038F00E2E07F8E02569F0E025E0640AC02E
S1130AF0EF6307F8009407FADB01B9019D01DC01FB
S1130B00CA01AD01EF9343D045D10AD05F9155237B
S1130B1031F02BED3FE049E450FD49EC63CF0895FB
S1130B20DF93DD27B92FBF7740E85FE3161617067A
S1130B3048075B0710F4D92F67D19F938F937F9356
S1130B406F930ED2E4EEF0E0F2D024D12F913F91D6
S1130B504F915F916CD1DD2349F09058A2EA2AEDC0
S1130B603FE049EC5FE3D0785D274DDFDF9112C1B0
S1130B700CD010C108D140F0FFD030F021F45F3F19
S1130B8019F0CCC051113AC1CFC015D198F39923B3
S1130B90C9F35523B1F3951B550BBB27AA2762173D
S1130BA07307840738F09F5F5F4F220F331F441F82
S1130BB0AA1FA9F333D00E2E3AF0E0E830D09150BA
S1130BC05040E695001CCAF729D0FE2F27D0660FA7
S1130BD0771F881FBB1F261737074807AB07B0E8E6
S1130BE009F0BB0B802DBF01FF2793585F4F2AF0FC
S1130BF09E3F510568F092C001C15F3FECF3983EFF
S1130C00DCF3869577956795B795F7959F5FC9F758
S1130C10880F911D9695879597F90895E1E0660FE1
S1130C20771F881FBB1F621773078407BA0720F05A
S1130C30621B730B840BBA0BEE1F88F7E0950895C3
S1130C4004D06894B111DAC00895BDD088F09F57DC
S1130C5090F0B92F9927B751A0F0D1F0660F771F04
S1130C60881F991F1AF0BA95C9F712C0B13081F0E4
S1130C70C4D0B1E00895C1C0672F782F8827B85F2A
S1130C8039F0B93FCCF3869577956795B395D9F745
S1130C903EF490958095709561957F4F8F4F9F4F4F
S1130CA00895E89409C097FB3EF49095809570955B
S1130CB061957F4F8F4F9F4F9923A9F0F92F96E9A4
S1130CC0BB279395F695879577956795B795F11119
S1130CD0F8CFFAF4BB0F11F460FF1BC06F5F7F4FB6
S1130CE08F4F9F4F16C0882311F096E911C07723C8
S1130CF021F09EE8872F762F05C0662371F096E8D1
S1130D00862F70E060E02AF09A95660F771F881F9F
S1130D10DAF7880F9695879597F9089597F99F675D
S1130D2080E870E060E008959FEF80EC0895DF9321
S1130D30CF931F930F93FF92EF92DF927B018C016D
S1130D40689405C0DA2EEF0172D0FE01E894A591F3
S1130D502591359145915591AEF3EF0154DEFE0195
S1130D609701A801DA9479F7DF90EF90FF900F9143
S1130D701F91CF91DF91089500240A941616170647
S1130D8018060906089500240A9412161306140678
S1130D9005060895092E0394000C11F4882352F0DB
S1130DA0BB0F40F4BF2B11F460FF04C06F5F7F4F93
S1130DB08F4F9F4F089557FD9058440F551F59F07A
S1130DC05F3F71F04795880F97FB991F61F09F3F34
S1130DD079F087950895121613061406551FF2CF5D
S1130DE04695F1DF08C0161617061806991FF1CFAD
S1130DF086957105610508940895E894BB276627D4
S1130E007727CB0197F908959B01AC0160E070E06E
S1130E1080E89FE3ADCE0BD0BDCFAEDF28F0B3DFCB
S1130E2018F0952309F07ACF7FCF1124E7CFC3DFE1
S1130E30A0F3959FD1F3950F50E0551F629FF001E9
S1130E40729FBB27F00DB11D639FAA27F00DB11D42
S1130E50AA1F649F6627B00DA11D661F829F2227CB
S1130E60B00DA11D621F739FB00DA11D621F839F52
S1130E70A00D611D221F749F3327A00D611D231F28
S1130E80849F600D211D822F762F6A2F11249F5776
S1130E9050408AF0E1F088234AF0EE0FFF1FBB1F99
S1130EA0661F771F881F91505040A9F79E3F510538
S1130EB070F034CFA3CF5F3FECF3983EDCF386951C
S1130EC077956795B795F795E7959F5FC1F7FE2BE3
S1130ED0880F911D9695879597F9089511F40EF44E
S1130EE023CF41C070DFD0F39923D9F3CEF39F57BA
S1130EF0550B87FF46D00024A0E640EA90018058B5
S1130F005695979528F4805C660F771F881F20F00C
S1130F1026173707480730F4621B730B840B20290C
S1130F2031294A2BA69517940794202531254A2761
S1130F3058F7660F771F881F20F0261737074807D2
S1130F4030F4620B730B840B200D311D411DA095F1
S1130F5081F7B901842F9158880F96958795089544
S1130F609B01AC0158CF9F3F31F0915020F48795FD
S1130F7077956795B795880F911D9695879597F9FD
S1130F80089591505040660F771F881FD2F7089537
S1130F90EF920F931F93CF93DF93E80147FD02C0B5
S1130FA034E001C034E1042E000C550B57FF03C09C
S1130FB0519541955109E32E022F242FAE0132D2CF
S1130FC0CE01DF91CF911F910F91EF9008950F9370
S1130FD01F93CF93DF93CDB7DEB72E970FB6F89458
S1130FE0DEBF0FBECDBF0E891F8986E08C831A83B6
S1130FF009838FEF9FE79E838D83AE01465E5F4F2B
S1131000688D798DCE01019610D0EF81F885E00FBF
S1131010F11F10822E960FB6F894DEBF0FBECDBF1F
S1131020DF91CF911F910F9108952F923F924F928C
S11310305F926F927F928F929F92AF92BF92CF9264
S1131040DF92EF92FF920F931F93CF93DF93CDB76D
S1131050DEB72B970FB6F894DEBF0FBECDBF6C0181
S11310607B018A01FC0117821682838181FFBFC143
S1131070CE0101963C01F6019381F70193FD859120
S113108093FF81917F01882309F4ADC1853239F43E
S113109093FD859193FF81917F01853221F4B601FF
S11310A090E024D4E8CF912C212C312CFFE1F315CE
S11310B0D8F08B3279F038F4803279F08332A1F4AD
S11310C0232D20611DC08D3261F0803369F4232DFE
S11310D0216016C0832D8260382EE32DE4603E2EFD
S11310E02AC0F32DF8601DC037FC2DC020ED280F59
S11310F02A3040F08E32B9F436FC75C1232D2064B9
S1131100322E19C036FE06C08AE0989E200D1124A6
S1131110922E11C0EAE02E9E200D1124222EF32DD2
S1131120F0623F2E08C08C3621F4832D8068382E5F
S113113002C0883641F4F70193FD859193FF8191B4
S11311407F018111B3CF982F9F7D9554933028F45C
S11311500C5F1F4F9FE399830DC0833631F08337B3
S113116071F0833509F055C020C0F801808189836E
S11311700E5F1F4F88248394912C530112C02801C1
S1131180F2E04F0E511CF801A080B18036FE03C07E
S1131190692D70E002C06FEF7FEFC5019CD34C0155
S11311A08201F32DFF773F2E15C0280122E0420E65
S11311B0511CF801A080B18036FE03C0692D70E097
S11311C002C06FEF7FEFC5017BD34C01F32DF068B4
S11311D03F2E820133FC19C0822D90E088169906B7
S11311E0A0F4B60180E290E081D32A94F5CFF50112
S11311F037FC859137FE81915F01B60190E076D38B
S113120021102A9421E0821A91088114910479F71B
S1131210E1C0843611F0893639F5F80137FE07C08C
S113122060817181828193810C5F1F4F08C060814E
S11312307181072E000C880B990B0E5F1F4FF32D45
S1131240FF763F2E97FF09C0909580957095619524
S11312507F4F8F4F9F4FF0683F2E2AE030E0A3016D
S113126081D3882E861844C0853731F4232D2F7EF0
S1131270B22E2AE030E025C0932D997FB92E8F3607
S1131280C1F018F4883579F0AEC0803719F088378A
S113129021F0A9C0E92FE061BE2EB4FE0DC0FB2DE4
S11312A0F460BF2E09C034FE0AC0292F2660B22E76
S11312B006C028E030E005C020E130E002C020E1B3
S11312C032E0F801B7FE07C06081718182819381A9
S11312D00C5F1F4F06C06081718180E090E00E5F5B
S11312E01F4FA3013FD3882E8618FB2DFF773F2E77
S11312F036FE0DC0232D2E7FA22E891458F434FE01
S11313000BC032FC09C0832D8E7EA82E05C0B82CDC
S1131310A32C03C0B82C01C0B92CA4FE0FC0FE013D
S1131320E80DF11D8081803321F49A2D997EA92E38
S113133009C0A2FE06C0B394B39404C08A2D867873
S113134009F0B394A3FC10C0A0FE06C0B21480F44C
S1131350280C922C9B180DC0B21458F4B60180E2EC
S113136090E0C4D2B394F8CFB21418F42B1802C08E
S1131370982C212CA4FE0FC0B60180E390E0B6D2D5
S1131380A2FE16C0A1FC03C088E790E002C088E575
S113139090E0B6010CC08A2D867851F0A1FE02C0FF
S11313A08BE201C080E2A7FC8DE2B60190E09ED200
S11313B0891430F4B60180E390E098D29A94F8CF7F
S11313C08A94F301E80DF11D8081B60190E08ED27C
S11313D08110F6CF222009F44ECEB60180E290E0CF
S11313E085D22A94F7CFF6018681978102C08FEFC8
S11313F09FEF2B960FB6F894DEBF0FBECDBFDF91E3
S1131400CF911F910F91FF90EF90DF90CF90BF90FD
S1131410AF909F908F907F906F905F904F903F9090
S11314202F9008958F929F92AF92BF92CF92DF92A6
S1131430EF92FF920F931F93CF93DF93CDB7DEB755
S113144029970FB6F894DEBF0FBECDBF6A01122FE5
S1131450B02E2BE3201720F0FF24F394F00E02C0EB
S11314602CE3F22E0F2D27E0AE014F5F5F4F50D1DA
S1131470BC014981842F8970813031F0E1FC06C0C0
S1131480E0FE06C090E205C09DE203C09BE201C0FD
S113149090E05E2D507143FF3CC0911102C083E087
S11314A001C084E0811718F4212F281B01C020E01B
S11314B051110BC0F601822F30E2882319F03193C9
S11314C08150FBCFC20ED11C20E0992329F0D60114
S11314D09C93F60131966F01C6010396E2FE0AC0A1
S11314E03EE4D6013C9341E411964C931197129635
S11314F03C9306C03EE6F601308341E641833283E5
S1131500FC01322F40E2332309F442C041933150AD
S1131510FACF42FF44C0911102C083E001C084E0CD
S1131520811718F4212F281B01C020E051110BC092
S1131530F601822F30E2882319F031938150FBCFDA
S1131540C20ED11C20E0992329F0D6019C93F60108
S113155031966F01C6010396E2FE0BC039E4D60151
S11315603C933EE411963C93119736E412963C93D7
S113157007C039E6F60130833EE6318336E632832E
S1131580FC01322F40E2332319F041933150FBCF59
S1131590FC01E20FF11D10828EEF9FEFA6C021E047
S11315A030E0911102C020E030E0161617061CF45A
S11315B0FB01319602C0E1E0F0E02E0F3F1FBB209B
S11315C021F0EB2DF0E0319602C0E0E0F0E02E0FC8
S11315D03F1FE12FF0E02E173F071CF4121B212FB1
S11315E001C020E08E2D887159F4F601822F30E27B
S11315F0882319F031938150FBCFC20ED11C20E017
S1131600992329F0D6019C93F60131966F0151116B
S11316100BC0F601822F90E3882319F09193815037
S1131620FBCFC20ED11C20E00F2D060F9A81342F60
S1131630307144FF03C0913309F40150101624F4AF
S1131640093018F008E001C001E0AB0177FF02C0E7
S113165040E050E0FB01E41BF50BA1E0B0E0AC0F6F
S1131660BD1FEA0FFB1F8EE2A82E4B01801A9108C2
S11316700B2D10E01195019511094F3FBFEF5B074A
S113168021F4D601AC9211966D01641775072CF004
S11316908416950614F4818101C080E341505109F8
S11316A03196D60111967D014017510724F0D601D9
S11316B08C936701E2CF6417750739F4963320F4ED
S11316C0953319F4311101C081E3F6018083F701E8
S11316D0822F90E2882319F091938150FBCFF70178
S11316E0E20FF11D108280E090E029960FB6F89485
S11316F0DEBF0FBECDBFDF91CF911F910F91FF9041
S1131700EF90DF90CF90BF90AF909F908F9008950F
S1131710283008F027E03327DA01990F311D87FDBF
S1131720916000966105710539F432602E5F3D9336
S113173030E32A95E1F708959F3F30F08038710532
S1131740610509F03C5F3C5F3D93913008F080688F
S1131750911DDF93CF931F930F93FF92EF92192F55
S1131760987F9695E92F96959695E90FFF27E4596A
S1131770FE4F99273327EE24FF24A701E7010590A4
S11317800894079428F4360FE71EF81E491F511DCC
S1131790660F771F881F991F0694A1F70590079479
S11317A028F4E70EF81E491F561FC11D770F881F26
S11317B0991F661F0694A1F70590079428F4F80E64
S11317C0491F561FC71FD11D880F991F661F771FFA
S11317D00694A1F70590079420F4490F561FC71FDC
S11317E0D81F990F661F771F881F0694A9F7849145
S11317F01095177041F0D695C79557954795F7946E
S1131800E7941A95C1F7E2E1F1E068941590159117
S113181035916591959105907FE27395E118F10AF0
S1131820430B560BC90BD009C0F7E10CF11E431F43
S1131830561FC91FD01D7EF4703311F48A95E6CF6C
S1131840E894015030F0080F0AF40027021708F456
S1131850202F2395022F7A3328F079E37D932A955C
S1131860E9F710C07D932A9589F6069497956795B4
S1131870379517951794E118F10A430B560BC90BCA
S1131880D00998F023957E9173957A3308F070E32C
S11318907C932013B8F77E9170617D9330F083952B
S11318A071E37D9370E32A95E1F71124EF90FF90A3
S11318B00F911F91CF91DF91992787FD90950895FE
S11318C0FC010590615070400110D8F78095909507
S11318D08E0F9F1F0895FC0161507040019001100C
S11318E0D8F7809590958E0F9F1F08950F931F939F
S11318F0CF93DF93FB01238121FD03C08FEF9FEF83
S11319002CC022FF16C0468157812481358142179D
S1131910530744F4A081B1819D012F5F3F4F318370
S113192020838C93268137812F5F3F4F3783268313
S113193014C08B01EC01FB010084F185E02D1995A5
S1131940892BE1F6D80116968D919C9117970196F3
S113195017969C938E931697CE01DF91CF911F918A
S11319600F910895FA01AA27283051F1203181F10D
S1131970E8946F936E7F6E5F7F4F8F4F9F4FAF4F93
S1131980B1E03ED0B4E03CD0670F781F891F9A1FA6
S1131990A11D680F791F8A1F911DA11D6A0F711D5A
S11319A0811D911DA11D20D009F468943F912AE066
S11319B0269F11243019305D3193DEF6CF0108954E
S11319C0462F4770405D4193B3E00FD0C9F7F6CF7F
S11319D0462F4F70405D4A3318F0495D31FD405247
S11319E0419302D0A9F7EACFB4E0A69597958795DD
S11319F077956795BA95C9F70097610571050895BC
S1131A009B01AC010A2E0694579547953795279567
S1131A10BA95C9F7620F731F841F951FA01D0895FF
S1071A20F894FFCF64
S1131A245265662E20416E676C65203D202573093E
S1131A3400416E676C65203D2025730A004B4154B8
S10D1A4441594120474F4E41200054
S9030000FC
