S01700004763634170706C69636174696F6E312E737265635B
S113000071C0000007C200007FC000007DC0000076
S11300107BC0000079C0000077C0000075C00000FC
S113002073C0000071C000006FC000006DC000000C
S11300306BC0000069C0000067C0000065C000001C
S113004063C00000D0C100005FC000005DC00000BC
S11300505BC0000059C0000057C0000055C000003C
S113006053C0000051C000004FC000004DC000004C
S11300704BC0000049C0000047C0000045C000005C
S113008043C0000041C000003FC000003DC000006C
S11300903BC0000039C0000037C0000035C000007C
S11300A033C0000031C000002FC000002DC000008C
S11300B02BC0000029C0000027C0000025C000009C
S11300C023C0000021C000001FC000001DC00000AC
S11300D01BC0000019C0000017C0000015C00000BC
S11300E013C0000011241FBECFEFD1E2DEBFCDBF8D
S11300F000E00CBF22E0A0E0B2E001C01D92AC30F1
S1130100B207E1F7C8D011C27BCF8FEF81B98AB1B2
S11301108E7F8AB90895982F907F92B992B19E7F6D
S113012092B992B19D7F92B992B1946092B9EFE382
S1130130FCE93197F1F700C0000092B19B7F92B9BE
S1130140EFE3FCE93197F1F700C00000F0E18F9F85
S1130150C001112482B982B18E7F82B982B18D7FB0
S113016082B982B1846082B98FE39CE90197F1F787
S113017000C0000082B18B7F82B9EFE3FCE93197C4
S1130180F1F700C000000895982F907F92B992B1C2
S1130190916092B992B19D7F92B992B1946092B9F3
S11301A0EFE3FCE93197F1F700C0000092B19B7FC7
S11301B092B9EFE3FCE93197F1F700C00000F0E1F8
S11301C08F9FC001112482B982B1816082B982B14A
S11301D08D7F82B982B1846082B98FE39CE90197F3
S11301E0F1F700C0000082B18B7F82B9EFE3FCE934
S11301F03197F1F700C000000895EAE7F0E080814C
S1130200806880838081876080838081806480832C
S1130210089582E080DF88E27EDF8EE07CDF81E08B
S11302207ADF80E878CF0895ECE7F0E09081907F62
S1130230892B8083808181718083EAE7F0E080816B
S11302408064808380917A0086FDFCCF8091780061
S1130250909179000895EFE6F0E0808182608083D8
S11302600895E9E6F0E08081836080838DB3816046
S11302708DBB08951092850010928400E1E8F0E0AF
S113028080818D6080838AE197EB909389008093CD
S11302908800E1CF089539DFBCDFAFDFEBDFE1DFBA
S11302A0789481E471DF8EE66FDF87E66DDF8CE69C
S11302B06BDF85E669DF80E267DF89E665DF8EE66E
S11302C063DF80E261DF84E65FDF85E65DDF87E68A
S11302D05BDF80E0A9DF909309028093080280919C
S11302E0040290910502459774F080910002909168
S11302F00102892B41F488E00EDF81E090E09093C5
S113030001028093000220910A0230910B02809135
S113031008029091090228173907D9F210920502B0
S1130320109204028091000290910102019731F031
S11303308091020290910302019709F56ADF81E43A
S113034023DF8EE621DF87E61FDF8CE61DDF85E6EF
S11303501BDF80E219DF89E617DF8EE615DF80E216
S113036013DF84E611DF85E60FDF87E60DDF1092E9
S11303700302109202021092010210920002809174
S113038008029091090290930B0280930A02209133
S11303900802309109028091060290910702281BFD
S11303A0390BC901992324F488279927821B930BBD
S11303B06BE570E093D0FC012AE030E0B9018ED007
S11303C0C82FCF0164E670E089D0B90187D0D62F59
S11303D080ECA1DE80E38D0FD7DE80E38C0FD4DECA
S11303E080EBD2DE76CF1F920F920FB60F921124BC
S11303F08F939F93809104029091050201969093AC
S11304000502809304029F918F910F900FBE0F906D
S11304101F9018951F920F920FB60F9211240BB6CE
S11304200F922F933F934F935F936F937F938F9389
S11304309F93AF93BF93EF93FF93809100029091AA
S11304400102019711F4E5DE04C081E064DE80E876
S113045062DE83E499DE81E697DE8CE695DE89E64A
S113046093DE82E691DE82E78FDE81E68DDE84E72D
S11304708BDE85E689DE84E687DE80EC4CDE80E375
S113048083DE80E381DE80EB7FDE80910802909141
S11304900902909307028093060281E090E0909312
S11304A00302809302021092010210920002109241
S11304B0050210920402FF91EF91BF91AF919F91B9
S11304C08F917F916F915F914F913F912F910F90F9
S11304D00BBE0F900FBE0F901F90189597FB072E21
S11304E016F4009406D077FD08D00BD007FC05D095
S11304F03EF4909581959F4F0895709561957F4F37
S11305000895AA1BBB1B51E107C0AA1FBB1FA61756
S1130510B70710F0A61BB70B881F991F5A95A9F7A8
S111052080959095BC01CD010895F894FFCF0D
S9030000FC
