:10000000EEC000000CC100000AC1000008C10000E1
:1000100006C1000004C1000002C1000000C10000D0
:10002000FEC00000FCC00000FAC00000F8C00000E4
:10003000F6C00000F4C00000F2C00000F0C00000F4
:10004000EEC00000ECC00000EAC00000E8C0000004
:10005000E6C00000E4C00000E2C00000E0C0000014
:10006000DEC00000DCC00000DAC00000D8C0000024
:10007000D6C00000D4C00000D2C00000D0C0000034
:10008000CEC00000CCC00000CAC00000C8C0000044
:10009000C6C00000C4C00000C2C00000C0C0000054
:1000A000BEC00000BCC00000BAC00000B8C0000064
:1000B000B6C00000B4C00000B2C00000B0C0000074
:1000C000AEC00000ACC00000AAC00000A8C0000084
:1000D000A6C00000A4C00000A2C00000A0C0000094
:1000E0009EC0000000407A10F35A00A0724E18091A
:1000F0000010A5D4E80000E87648170000E40B548F
:10010000020000CA9A3B000000E1F505000080965D
:100110009800000040420F000000A086010000008F
:10012000102700000000E803000000006400000049
:1001300000000A00000000000100000000002C7612
:10014000D888DC674F0823DFC1DFAE59E1B1B7962D
:10015000E5E3E453C63AE651997696E8E6C284268A
:10016000EB898C9B62ED407C6FFCEFBC9C9F40F266
:10017000BAA56FA5F490055A2AF75C936B6CF967E2
:100180006DC11BFCE0E40D47FEF520E6B500D0EDA7
:10019000902E0300943577050080841E080000200F
:1001A0004E0A000000C80C333333330F986E1283AD
:1001B0001141EF8D2114893BE65516CFFEE6DB1881
:1001C000D1844B381BF77C1D901DA4BBE424203246
:1001D00084725E228100C9F124ECA1E53D2711243F
:1001E0001FBECFEFD1E2DEBFCDBF00E00CBF12E0FB
:1001F000A0E0B2E0E4E3F5E100E00BBF02C007904D
:100200000D92A236B107D9F722E0A2E6B2E001C012
:100210001D92AF36B207E1F724D10C94980AF0CEC4
:100220001092B90088E48093B800089594EA9093FE
:10023000BC009091BC009923E4F79091B900987F9D
:10024000903191F48093BB0084E88093BC0080914E
:10025000BC008823E4F78091B900887F803431F0B6
:10026000803231F482E0089580E0089581E00895BD
:1002700083E0089584E98093BC008091BC0084FDF4
:10028000FCCF0895CF93C82F84EA8093BC0080915F
:10029000BC008823E4F78091B900887F8830A1F7FB
:1002A000C093BB0084E88093BC008091BC0088238D
:1002B000E4F78091B900887F883111F0DBDFE4CF6B
:1002C000CF9108958093BB0084E88093BC00809117
:1002D000BC008823E4F78091B900887F883221F040
:1002E000803321F481E0089580E0089582E008954C
:1002F00084EC8093BC008091BC008823E4F780915B
:10030000BB00089584E88093BC008091BC008823E2
:10031000E4F78091BB0008951092C50087E68093B2
:10032000C40088E18093C10086E08093C2000895F4
:100330009091C00095FFFCCF8093C60008950F9365
:100340001F93CF93DF938C01C0E0D0E002C0F0DFB9
:100350002196F801EC0FFD1F80818111F8CFDF910C
:10036000CF911F910F9108952FEF82E597E02150D3
:1003700080409040E1F700C0000080ED83DF89E11C
:10038000A1DF87E09FDF76DF80ED7CDF8BE69ADF01
:1003900081E098DF6FDF80ED75DF8AE193DF80E039
:1003A00091DF68DF80ED6EDF8BE18CDF88E18ADF33
:1003B00061DF80ED67DF88E385DF81E083DF5ACF8F
:1003C000089580ED5FDF8BE37DDF81ED2FCF089512
:1003D000CF93DF93F6DF8CDFC82FD0E0DC2FCC2764
:1003E00087DFC82BD0936C02C0936B0281DFC82FCC
:1003F000D0E0DC2FCC277CDFC82BD0936702C093E2
:10040000660276DFC82FD0E0DC2FCC2771DFC82B47
:10041000D0936302C09362026BDFC82FD0E0DC2F61
:10042000CC2766DFC82BD0936502C093640260DFDF
:10043000C82FD0E0DC2FCC275BDFC82BD0936E0217
:10044000C0936D0255DFC82FD0E0DC2FCC275ADFD8
:10045000C82BD0936A02C09369020CDFDF91CF9161
:100460000895CF93DF93CDB7DEB7AE970FB6F8946C
:10047000DEBF0FBECDBFD4DE77DF4EDF1F8E18A2EA
:1004800019A21AA2A5DF60916B0270916C02072E6F
:10049000000C880B990B15D220E030E040E858E3BF
:1004A0009CD2DCD14B015C016091660270916702C5
:1004B000072E000C880B990B04D220E030E040E8B6
:1004C00058E38BD2CBD16BA37CA38DA39EA3609169
:1004D000620270916302072E000C880B990BF1D118
:1004E00020E030E040E858E378D2B8D16FA378A795
:1004F00089A79AA76091640270916502072E000C8B
:10050000880B990BDED120E030E043E053E43ED18C
:10051000A5D16BA77CA78DA79EA760916D02709156
:100520006E02072E000C880B990BCBD120E030E037
:1005300043E053E42BD192D16B017C0160916902BD
:1005400070916A02072E000C880B990BBAD120E03B
:1005500030E043E053E41AD181D12B013C011E016C
:1005600025E1220E311CB401990C880B990BA9D1FD
:10057000810122E043E094D23F922F9280E092E00A
:100580009F938F93CE0101965C019F938F93A7D287
:10059000C501D5DE2BA13CA1B901330F880B990B06
:1005A00090D122E043E07CD23F922F928CE092E007
:1005B0009F938F93BF92AF9292D2C501C0DE2FA1BD
:1005C00038A5B901330F880B990B7BD122E043E0AA
:1005D00067D23F922F9288E192E09F938F93BF92D0
:1005E000AF927DD2C501ABDE2BA53CA5B901330F7F
:1005F000880B990B66D122E043E052D21F920F2E56
:10060000F8EF9F2EF02D9F923F922F9284E292E07E
:100610009F938F93BF92AF9262D2C50190DEB601D5
:10062000DD0C880B990B4DD122E043E039D21F92AB
:100630009F923F922F9282E392E09F938F93BF927B
:10064000AF924DD20FB6F894DEBF0FBECDBFC5013D
:1006500076DEB201550C880B990B33D12B013C018E
:1006600022E043E01DD21F929F923F922F9280E49E
:1006700092E09F938F93BF92AF9231D2C5015FDE1C
:10068000A30192016F8D78A189A19AA11BD06F8FD0
:1006900078A389A39AA322E043E002D21F929F92FB
:1006A0003F922F928EE492E09F938F93BF92AF92EE
:1006B00016D2C50144DE0FB6F894DEBF0FBECDBF23
:1006C000E1CE5058BB27AA270ED04DC13ED130F005
:1006D00043D120F031F49F3F11F41EF433C10EF4E6
:1006E000E095E7FB29C1E92F4FD180F3BA176207E4
:1006F00073078407950718F071F49EF567C10EF42F
:10070000E0950B2EBA2FA02D0B01B90190010C0121
:10071000CA01A0011124FF27591B99F0593F50F439
:10072000503E68F11A16F040A22F232F342F442791
:10073000585FF3CF469537952795A795F040539589
:10074000C9F77EF41F16BA0B620B730B840BBAF059
:100750009150A1F0FF0FBB1F661F771F881FC2F7C4
:100760000EC0BA0F621F731F841F48F487957795D8
:100770006795B795F7959E3F08F0B3CF9395880F8F
:1007800008F09927EE0F9795879508950CD0EBC048
:10079000E3D040F0DAD030F021F45F3F19F0CCC064
:1007A000511115C1CFC0F0D098F39923C9F3552347
:1007B000B1F3951B550BBB27AA2762177307840754
:1007C00038F09F5F5F4F220F331F441FAA1FA9F30A
:1007D00033D00E2E3AF0E0E830D091505040E695FC
:1007E000001CCAF729D0FE2F27D0660F771F881F5D
:1007F000BB1F261737074807AB07B0E809F0BB0B4C
:10080000802DBF01FF2793585F4F2AF09E3F51056F
:1008100068F092C0DCC05F3FECF3983EDCF3869555
:1008200077956795B795F7959F5FC9F7880F911DE5
:100830009695879597F90895E1E0660F771F881FD1
:10084000BB1F621773078407BA0720F0621B730B84
:10085000840BBA0BEE1F88F7E095089504D06894D6
:10086000B111B5C0089598D088F09F5790F0B92F76
:100870009927B751A0F0D1F0660F771F881F991FF5
:100880001AF0BA95C9F712C0B13081F09FD0B1E02B
:1008900008959CC0672F782F8827B85F39F0B93F3B
:1008A000CCF3869577956795B395D9F73EF49095F7
:1008B0008095709561957F4F8F4F9F4F0895E89475
:1008C00009C097FB3EF490958095709561957F4F98
:1008D0008F4F9F4F9923A9F0F92F96E9BB27939546
:1008E000F695879577956795B795F111F8CFFAF456
:1008F000BB0F11F460FF1BC06F5F7F4F8F4F9F4F87
:1009000016C0882311F096E911C0772321F09EE8E4
:10091000872F762F05C0662371F096E8862F70E04A
:1009200060E02AF09A95660F771F881FDAF7880F24
:100930009695879597F9089597F99F6780E870E0F5
:1009400060E008959FEF80EC089500240A94161645
:10095000170618060906089500240A9412161306AD
:10096000140605060895092E0394000C11F488233B
:1009700052F0BB0F40F4BF2B11F460FF04C06F5F57
:100980007F4F8F4F9F4F089557FD9058440F551F2D
:1009900059F05F3F71F04795880F97FB991F61F001
:1009A0009F3F79F087950895121613061406551F78
:1009B000F2CF4695F1DF08C0161617061806991FE4
:1009C000F1CF86957105610508940895E894BB27D9
:1009D00066277727CB0197F908950BD0C4CFB5DFF1
:1009E00028F0BADF18F0952309F0A6CFABCF112479
:1009F000EECFCADFA0F3959FD1F3950F50E0551FBE
:100A0000629FF001729FBB27F00DB11D639FAA2763
:100A1000F00DB11DAA1F649F6627B00DA11D661FB2
:100A2000829F2227B00DA11D621F739FB00DA11DD3
:100A3000621F839FA00D611D221F749F3327A00D8D
:100A4000611D231F849F600D211D822F762F6A2F29
:100A500011249F5750408AF0E1F088234AF0EE0FAE
:100A6000FF1FBB1F661F771F881F91505040A9F7BB
:100A70009E3F510570F060CFAACF5F3FECF3983EE8
:100A8000DCF3869577956795B795F795E7959F5F22
:100A9000C1F7FE2B880F911D9695879597F90895BC
:100AA000EF920F931F93CF93DF93E80147FD02C0AE
:100AB00034E001C034E1042E000C550B57FF03C095
:100AC000519541955109E32E022F242FAE0132D2C8
:100AD000CE01DF91CF911F910F91EF9008950F9369
:100AE0001F93CF93DF93CDB7DEB72E970FB6F89451
:100AF000DEBF0FBECDBF0E891F8986E08C831A83AF
:100B000009838FEF9FE79E838D83AE01465E5F4F23
:100B1000688D798DCE01019610D0EF81F885E00FB8
:100B2000F11F10822E960FB6F894DEBF0FBECDBF18
:100B3000DF91CF911F910F9108952F923F924F9285
:100B40005F926F927F928F929F92AF92BF92CF925D
:100B5000DF92EF92FF920F931F93CF93DF93CDB766
:100B6000DEB72B970FB6F894DEBF0FBECDBF6C017A
:100B70007B018A01FC0117821682838181FFBFC13C
:100B8000CE0101963C01F6019381F70193FD859119
:100B900093FF81917F01882309F4ADC1853239F437
:100BA00093FD859193FF81917F01853221F4B601F8
:100BB00090E024D4E8CF912C212C312CFFE1F315C7
:100BC000D8F08B3279F038F4803279F08332A1F4A6
:100BD000232D20611DC08D3261F0803369F4232DF7
:100BE000216016C0832D8260382EE32DE4603E2EF6
:100BF0002AC0F32DF8601DC037FC2DC020ED280F52
:100C00002A3040F08E32B9F436FC75C1232D2064B1
:100C1000322E19C036FE06C08AE0989E200D11249F
:100C2000922E11C0EAE02E9E200D1124222EF32DCB
:100C3000F0623F2E08C08C3621F4832D8068382E58
:100C400002C0883641F4F70193FD859193FF8191AD
:100C50007F018111B3CF982F9F7D9554933028F455
:100C60000C5F1F4F9FE399830DC0833631F08337AC
:100C700071F0833509F055C020C0F8018081898367
:100C80000E5F1F4F88248394912C530112C02801BA
:100C9000F2E04F0E511CF801A080B18036FE03C077
:100CA000692D70E002C06FEF7FEFC5019CD34C014E
:100CB0008201F32DFF773F2E15C0280122E0420E5E
:100CC000511CF801A080B18036FE03C0692D70E090
:100CD00002C06FEF7FEFC5017BD34C01F32DF068AD
:100CE0003F2E820133FC19C0822D90E088169906B0
:100CF000A0F4B60180E290E081D32A94F5CFF5010B
:100D000037FC859137FE81915F01B60190E076D383
:100D100021102A9421E0821A91088114910479F714
:100D2000E1C0843611F0893639F5F80137FE07C085
:100D300060817181828193810C5F1F4F08C0608147
:100D40007181072E000C880B990B0E5F1F4FF32D3E
:100D5000FF763F2E97FF09C090958095709561951D
:100D60007F4F8F4F9F4FF0683F2E2AE030E0A30166
:100D700081D3882E861844C0853731F4232D2F7EE9
:100D8000B22E2AE030E025C0932D997FB92E8F3600
:100D9000C1F018F4883579F0AEC0803719F0883783
:100DA00021F0A9C0E92FE061BE2EB4FE0DC0FB2DDD
:100DB000F460BF2E09C034FE0AC0292F2660B22E6F
:100DC00006C028E030E005C020E130E002C020E1AC
:100DD00032E0F801B7FE07C06081718182819381A2
:100DE0000C5F1F4F06C06081718180E090E00E5F54
:100DF0001F4FA3013FD3882E8618FB2DFF773F2E70
:100E000036FE0DC0232D2E7FA22E891458F434FEF9
:100E10000BC032FC09C0832D8E7EA82E05C0B82CD5
:100E2000A32C03C0B82C01C0B92CA4FE0FC0FE0136
:100E3000E80DF11D8081803321F49A2D997EA92E31
:100E400009C0A2FE06C0B394B39404C08A2D86786C
:100E500009F0B394A3FC10C0A0FE06C0B21480F445
:100E6000280C922C9B180DC0B21458F4B60180E2E5
:100E700090E0C4D2B394F8CFB21418F42B1802C087
:100E8000982C212CA4FE0FC0B60180E390E0B6D2CE
:100E9000A2FE16C0A1FC03C088E790E002C088E56E
:100EA00090E0B6010CC08A2D867851F0A1FE02C0F8
:100EB0008BE201C080E2A7FC8DE2B60190E09ED2F9
:100EC000891430F4B60180E390E098D29A94F8CF78
:100ED0008A94F301E80DF11D8081B60190E08ED275
:100EE0008110F6CF222009F44ECEB60180E290E0C8
:100EF00085D22A94F7CFF6018681978102C08FEFC1
:100F00009FEF2B960FB6F894DEBF0FBECDBFDF91DB
:100F1000CF911F910F91FF90EF90DF90CF90BF90F6
:100F2000AF909F908F907F906F905F904F903F9089
:100F30002F9008958F929F92AF92BF92CF92DF929F
:100F4000EF92FF920F931F93CF93DF93CDB7DEB74E
:100F500029970FB6F894DEBF0FBECDBF6A01122FDE
:100F6000B02E2BE3201720F0FF24F394F00E02C0E4
:100F70002CE3F22E0F2D27E0AE014F5F5F4F50D1D3
:100F8000BC014981842F8970813031F0E1FC06C0B9
:100F9000E0FE06C090E205C09DE203C09BE201C0F6
:100FA00090E05E2D507143FF3CC0911102C083E080
:100FB00001C084E0811718F4212F281B01C020E014
:100FC00051110BC0F601822F30E2882319F03193C2
:100FD0008150FBCFC20ED11C20E0992329F0D6010D
:100FE0009C93F60131966F01C6010396E2FE0AC09A
:100FF0003EE4D6013C9341E411964C93119712962E
:101000003C9306C03EE6F601308341E641833283DD
:10101000FC01322F40E2332309F442C041933150A6
:10102000FACF42FF44C0911102C083E001C084E0C6
:10103000811718F4212F281B01C020E051110BC08B
:10104000F601822F30E2882319F031938150FBCFD3
:10105000C20ED11C20E0992329F0D6019C93F60101
:1010600031966F01C6010396E2FE0BC039E4D6014A
:101070003C933EE411963C93119736E412963C93D0
:1010800007C039E6F60130833EE6318336E6328327
:10109000FC01322F40E2332319F041933150FBCF52
:1010A000FC01E20FF11D10828EEF9FEFA6C021E040
:1010B00030E0911102C020E030E0161617061CF453
:1010C000FB01319602C0E1E0F0E02E0F3F1FBB2094
:1010D00021F0EB2DF0E0319602C0E0E0F0E02E0FC1
:1010E0003F1FE12FF0E02E173F071CF4121B212FAA
:1010F00001C020E08E2D887159F4F601822F30E274
:10110000882319F031938150FBCFC20ED11C20E00F
:10111000992329F0D6019C93F60131966F01511164
:101120000BC0F601822F90E3882319F09193815030
:10113000FBCFC20ED11C20E00F2D060F9A81342F59
:10114000307144FF03C0913309F40150101624F4A8
:10115000093018F008E001C001E0AB0177FF02C0E0
:1011600040E050E0FB01E41BF50BA1E0B0E0AC0F68
:10117000BD1FEA0FFB1F8EE2A82E4B01801A9108BB
:101180000B2D10E01195019511094F3FBFEF5B0743
:1011900021F4D601AC9211966D01641775072CF0FD
:1011A0008416950614F4818101C080E341505109F1
:1011B0003196D60111967D014017510724F0D601D2
:1011C0008C936701E2CF6417750739F4963320F4E6
:1011D000953319F4311101C081E3F6018083F701E1
:1011E000822F90E2882319F091938150FBCFF70171
:1011F000E20FF11D108280E090E029960FB6F8947E
:10120000DEBF0FBECDBFDF91CF911F910F91FF9039
:10121000EF90DF90CF90BF90AF909F908F90089508
:10122000283008F027E03327DA01990F311D87FDB8
:10123000916000966105710539F432602E5F3D932F
:1012400030E32A95E1F708959F3F30F0803871052B
:10125000610509F03C5F3C5F3D93913008F0806888
:10126000911DDF93CF931F930F93FF92EF92192F4E
:10127000987F9695E92F96959695E90FFF27E25C62
:10128000FE4F99273327EE24FF24A701E70105909D
:101290000894079428F4360FE71EF81E491F511DC5
:1012A000660F771F881F991F0694A1F70590079472
:1012B00028F4E70EF81E491F561FC11D770F881F1F
:1012C000991F661F0694A1F70590079428F4F80E5D
:1012D000491F561FC71FD11D880F991F661F771FF3
:1012E0000694A1F70590079420F4490F561FC71FD5
:1012F000D81F990F661F771F881F0694A9F784913E
:101300001095177041F0D695C79557954795F79466
:10131000E7941A95C1F7E4EEF0E068941590159102
:1013200035916591959105907FE27395E118F10AE9
:10133000430B560BC90BD009C0F7E10CF11E431F3C
:10134000561FC91FD01D7EF4703311F48A95E6CF65
:10135000E894015030F0080F0AF40027021708F44F
:10136000202F2395022F7A3328F079E37D932A9555
:10137000E9F710C07D932A9589F6069497956795AD
:10138000379517951794E118F10A430B560BC90BC3
:10139000D00998F023957E9173957A3308F070E325
:1013A0007C932013B8F77E9170617D9330F0839524
:1013B00071E37D9370E32A95E1F71124EF90FF909C
:1013C0000F911F91CF91DF91992787FD90950895F7
:1013D000FC010590615070400110D8F78095909500
:1013E0008E0F9F1F0895FC01615070400190011005
:1013F000D8F7809590958E0F9F1F08950F931F9398
:10140000CF93DF93FB01238121FD03C08FEF9FEF7B
:101410002CC022FF16C04681578124813581421796
:10142000530744F4A081B1819D012F5F3F4F318369
:1014300020838C93268137812F5F3F4F378326830C
:1014400014C08B01EC01FB010084F185E02D19959E
:10145000892BE1F6D80116968D919C9117970196EC
:1014600017969C938E931697CE01DF91CF911F9183
:101470000F910895FA01AA27283051F1203181F106
:10148000E8946F936E7F6E5F7F4F8F4F9F4FAF4F8C
:10149000B1E03ED0B4E03CD0670F781F891F9A1F9F
:1014A000A11D680F791F8A1F911DA11D6A0F711D53
:1014B000811D911DA11D20D009F468943F912AE05F
:1014C000269F11243019305D3193DEF6CF01089547
:1014D000462F4770405D4193B3E00FD0C9F7F6CF78
:1014E000462F4F70405D4A3318F0495D31FD405240
:1014F000419302D0A9F7EACFB4E0A69597958795D6
:1015000077956795BA95C9F70097610571050895B4
:101510009B01AC010A2E0694579547953795279560
:10152000BA95C9F7620F731F841F951FA01D0895F8
:04153000F894FFCF5D
:10153400204178203D20257320670900204179202F
:101544003D2025732067090020417A203D20257322
:1015540020670900204778203D20257325632F73D9
:101564000900204779203D20257325632F73090046
:1015740020477A203D20257325632F7309002047D7
:101584007A2073756D203D20257325632F730D0A12
:02159400000055
:00000001FF
